{
  "contractName": "WeddingCertificateFactory",
  "abi": [
    {
      "inputs": [
        {
          "internalType": "string",
          "name": "_NamePartner1",
          "type": "string"
        },
        {
          "internalType": "string",
          "name": "_NamePartner2",
          "type": "string"
        }
      ],
      "name": "createCertificate",
      "outputs": [],
      "stateMutability": "nonpayable",
      "type": "function"
    },
    {
      "inputs": [],
      "name": "getListCertificate",
      "outputs": [
        {
          "internalType": "contract WeddingCertificate[]",
          "name": "",
          "type": "address[]"
        }
      ],
      "stateMutability": "view",
      "type": "function"
    }
  ],
  "bytecode": "0x608060405234801561001057600080fd5b506108ab806100206000396000f3fe608060405234801561001057600080fd5b50600436106100365760003560e01c8063e13eb68b1461003b578063f02c5a201461009a575b600080fd5b6100436101ec565b6040518080602001828103825283818151815260200191508051906020019060200280838360005b8381101561008657808201518184015260208101905061006b565b505050509050019250505060405180910390f35b6101ea600480360360408110156100b057600080fd5b81019080803590602001906401000000008111156100cd57600080fd5b8201836020820111156100df57600080fd5b8035906020019184600183028401116401000000008311171561010157600080fd5b91908080601f016020809104026020016040519081016040528093929190818152602001838380828437600081840152601f19601f8201169050808301925050505050505091929192908035906020019064010000000081111561016457600080fd5b82018360208201111561017657600080fd5b8035906020019184600183028401116401000000008311171561019857600080fd5b91908080601f016020809104026020016040519081016040528093929190818152602001838380828437600081840152601f19601f82011690508083019250505050505050919291929050505061027a565b005b6060600080548060200260200160405190810160405280929190818152602001828054801561027057602002820191906000526020600020905b8160009054906101000a900473ffffffffffffffffffffffffffffffffffffffff1673ffffffffffffffffffffffffffffffffffffffff1681526020019060010190808311610226575b5050505050905090565b6000828260405161028a906103ec565b808060200180602001838103835285818151815260200191508051906020019080838360005b838110156102cb5780820151818401526020810190506102b0565b50505050905090810190601f1680156102f85780820380516001836020036101000a031916815260200191505b50838103825284818151815260200191508051906020019080838360005b83811015610331578082015181840152602081019050610316565b50505050905090810190601f16801561035e5780820380516001836020036101000a031916815260200191505b50945050505050604051809103906000f080158015610381573d6000803e3d6000fd5b5090506000819080600181540180825580915050600190039060005260206000200160009091909190916101000a81548173ffffffffffffffffffffffffffffffffffffffff021916908373ffffffffffffffffffffffffffffffffffffffff160217905550505050565b61047c806103fa8339019056fe608060405234801561001057600080fd5b5060405161047c38038061047c8339818101604052604081101561003357600080fd5b810190808051604051939291908464010000000082111561005357600080fd5b8382019150602082018581111561006957600080fd5b825186600182028301116401000000008211171561008657600080fd5b8083526020830192505050908051906020019080838360005b838110156100ba57808201518184015260208101905061009f565b50505050905090810190601f1680156100e75780820380516001836020036101000a031916815260200191505b506040526020018051604051939291908464010000000082111561010a57600080fd5b8382019150602082018581111561012057600080fd5b825186600182028301116401000000008211171561013d57600080fd5b8083526020830192505050908051906020019080838360005b83811015610171578082015181840152602081019050610156565b50505050905090810190601f16801561019e5780820380516001836020036101000a031916815260200191505b5060405250505081600090805190602001906101bb9291906101da565b5080600190805190602001906101d29291906101da565b505050610285565b828054600181600116156101000203166002900490600052602060002090601f0160209004810192826102105760008555610257565b82601f1061022957805160ff1916838001178555610257565b82800160010185558215610257579182015b8281111561025657825182559160200191906001019061023b565b5b5090506102649190610268565b5090565b5b80821115610281576000816000905550600101610269565b5090565b6101e8806102946000396000f3fe608060405234801561001057600080fd5b506004361061002b5760003560e01c806373e29b0d14610030575b600080fd5b6100386100b3565b6040518080602001828103825283818151815260200191508051906020019080838360005b8381101561007857808201518184015260208101905061005d565b50505050905090810190601f1680156100a55780820380516001836020036101000a031916815260200191505b509250505060405180910390f35b60606000600160405160200180838054600181600116156101000203166002900480156101175780601f106100f5576101008083540402835291820191610117565b820191906000526020600020905b815481529060010190602001808311610103575b5050807f2c00000000000000000000000000000000000000000000000000000000000000815250600101828054600181600116156101000203166002900480156101985780601f10610176576101008083540402835291820191610198565b820191906000526020600020905b815481529060010190602001808311610184575b50509250505060405160208183030381529060405290509056fea2646970667358221220874c9b5980468245f1a30a79b1e9f3d50ff3e86b2cf08d8995202bacd117abe764736f6c63430007040033a2646970667358221220858ce968246ec5419a71fe3998cf83e42cba19a21a79cdede86b5313a9d2e85a64736f6c63430007040033",
  "immutableReferences": {},
  "source": "// SPDX-License-Identifier: UNLICENSED.\r\npragma solidity ^0.7.4;\r\n\r\n    contract WeddingCertificate {\r\n        string private NamePartner1;\r\n        string private NamePartner2;\r\n\r\n\r\n        constructor(string memory _NamePartner1, string memory _NamePartner2) {\r\n            NamePartner1 = _NamePartner1;\r\n            NamePartner2 = _NamePartner2;\r\n        }\r\n\r\n        function getPartners() public view returns (string memory){\r\n            return string(abi.encodePacked(NamePartner1,',',NamePartner2)); //return the Partners name\r\n        }\r\n\r\n    }\r\n\r\n    contract WeddingCertificateFactory {\r\n\r\n        WeddingCertificate[] listWeddingCertificate;\r\n\r\n        function createCertificate(string memory _NamePartner1, string memory _NamePartner2) public {\r\n            WeddingCertificate newCertificate = new WeddingCertificate(_NamePartner1, _NamePartner2);\r\n            listWeddingCertificate.push(newCertificate);\r\n        }\r\n\r\n        function getListCertificate() public view returns(WeddingCertificate[] memory) {\r\n            return listWeddingCertificate;\r\n        }\r\n    }\r\n",
  "sourcePath": "C:\\Users\\hanon\\Documents\\ISITECH\\Block Chain\\TP\\blockchain\\contracts\\contracts\\weddingCertificate.sol",
  "compiler": {
    "name": "solc",
    "version": "0.7.4+commit.3f05b770.Emscripten.clang"
  },
  "schemaVersion": "3.4.4",
  "updatedAt": "2022-06-21T15:01:30.586Z",
  "devdoc": {
    "kind": "dev",
    "methods": {},
    "version": 1
  },
  "userdoc": {
    "kind": "user",
    "methods": {},
    "version": 1
  }
}